:100000000C9434000C9451000C9451000C94510049
:100010000C9451000C9451000C9451000C9451001C
:100020000C9451000C9451000C9451000C9451000C
:100030000C9451000C9451000C9451000C945100FC
:100040000C94F2000C9451000C9451000C9451004B
:100050000C9451000C9451000C9451000C945100DC
:100060000C9451000C94510011241FBECFEFD8E026
:10007000DEBFCDBF11E0A0E0B1E0E2E6F3E002C0F8
:1000800005900D92A034B107D9F711E0A0E4B1E0DA
:1000900001C01D92A636B107E1F70E9493010C94AE
:1000A000AF010C94000080E091E1909343018093B4
:1000B0004201A0915C01E6E0EA9FD0011124A0502A
:1000C000BF4F4D915C91119750934501409344016E
:1000D00012962D913C91139730934701209346013E
:1000E00014968D919C9115979093490180934801A6
:1000F000A0915D01EA9FD0011124A050BF4F6D91E6
:100100007C91119770934B0160934A0112966D9107
:100110007C91139770934D0160934C0114966D91EF
:100120007C91159770934F0160934E0160915E0131
:10013000E69FF0011124E050FF4F608171817093C0
:1001400051016093500162817381709353016093F8
:1001500052016481758170935501609354015093ED
:1001600057014093560130935901209358019093C1
:100170005B0180935A010895CF93DF93C2E4D1E0ED
:10018000899199910E94550181E0CC35D807C1F73A
:10019000DF91CF910C946401382F562F842F2AE0E1
:1001A000622F0E94A30190935C0180935D01852FD3
:1001B0000E94A30190935E0180935F01832F68E109
:1001C0000E94A301892F622F0E94A30190936001D6
:1001D00080936101089583E085BD16BC81E0809322
:1001E0006E0008951F920F920FB60F9211242F9355
:1001F0003F934F935F936F937F938F939F93AF93AF
:10020000BF93EF93FF9386E086BD80916401909148
:1002100065019C012F5F3F4F30936501209364017E
:10022000843F914088F1809163018F5F80936301E7
:100230000E94BC00109265011092640180913E0101
:100240008F5F80933E0180913E018C3338F0109295
:100250003E0180913D018F5F80933D0180913D0182
:100260008C3338F010923D0180913C018F5F809378
:100270003C0180913C01883138F010923C01809122
:1002800041018F5F80934101FF91EF91BF91AF9149
:100290009F918F917F916F915F914F913F912F919E
:1002A0000F900FBE0F901F90189520E141E097FF2F
:1002B00002C0419A01C0419838B1342738B9880F3B
:1002C000991F2150A1F7089541988FE891E0019777
:1002D000F1F700C0000088E022E098B1922798B9B9
:1002E0008150D9F7089580E091E10E94550141982D
:1002F00080EC21E098B1922798B98150D9F780E03D
:1003000091E10E945501419880EC21E098B192273B
:1003100098B98150D9F70C946401399A389A419868
:1003200040980C9473010E948D010E94EB00789418
:1003300040913E0160913D0180913C010E94CC00C2
:100340000E945300F5CF991B79E004C0991F9617BE
:1003500008F0961B881F7A95C9F780950895F89440
:02036000FFCFCD
:10036200000000000000CC8C66260000FFFF0000A9
:100372000000FFFF65A60000FFFFFFFF0000000076
:10038200FFFF000000000000FFFF13EE8E8213EE5D
:10039200333333333333FFFFFFFFFFFF0A0B030017
:00000001FF
